:020000040800F2
:10000000B0150020D5010008790D0008FF0B00088D
:10001000750D0008F30500089F220008000000008D
:10002000000000000000000000000000E51E0008C5
:10003000D50800080000000063020008F91F00084E
:10004000EF010008EF010008EF010008EF010008D0
:10005000EF010008EF010008EF010008EF010008C0
:10006000EF010008EF010008EF010008EF010008B0
:10007000EF010008EF010008EF010008EF010008A0
:10008000EF010008EF010008EF010008EF01000890
:10009000EF010008EF010008EF010008EF01000880
:1000A000EF010008EF010008EF010008EF01000870
:1000B000EF010008EF010008EF010008EF01000860
:1000C000EF010008EF010008EF010008EF01000850
:1000D000EF01000875200008EF010008EF0100089B
:1000E000EF010008EF010008EF010008EF01000830
:1000F000EF010008EF010008EF010008EF01000820
:10010000EF010008EF010008EF010008EF0100080F
:10011000EF010008EF010008EF010008EF010008FF
:10012000EF010008EF010008EF010008EF010008EF
:1001300000F002F800F03EF80AA090E8000C8244BB
:100140008344AAF10107DA4501D100F033F8AFF298
:10015000090EBAE80F0013F0010F18BFFB1A43F0A5
:1001600001031847D0240000F0240000103A24BFF7
:1001700078C878C1FAD8520724BF30C830C144BF0C
:1001800004680C607047000000230024002500264E
:10019000103A28BF78C1FBD8520728BF30C148BFEA
:1001A0000B6070471FB59DE8030000F011F91FBDFB
:1001B00010B510BD00F095F91146FFF7F3FF02F0FE
:1001C00017F900F0C7F903B4FFF7F2FF03BC02F020
:1001D00068F800000948804709480047FEE7FEE745
:1001E000FEE7FEE7FEE7FEE7FEE7FEE7FEE7FEE7E7
:1001F00004480549054A064B7047000015200008D1
:1002000031010008B00F0020B0150020B01100200F
:10021000B0110020EFF3108072B6704780F31088A1
:100220007047204C204D25604FF0000484F309886E
:100230001E4C4FF0010525701D4C4FF08055256078
:1002400062B6FEE730B41A4C4FF08055256030BCE2
:10025000704730B4164C4FF08055256030BC704765
:1002600000BF72B6EFF3098028B1203880E8F00FA4
:1002700010490968086000B50F4880475DF804EB35
:100280000E480F490A7802700A480E490A6802604F
:10029000106890E8F00F203080F309884EF0040ECB
:1002A00062B6704720ED00E00000FFFF6A0000200A
:1002B00004ED00E070000020991500085F000020A8
:1002C0006000002078000020704770B5064600F0FE
:1002D00063F8056806F10B0020F00704B4429CBFE8
:1002E000002070BD2B466A68BAB11068A04210D3D6
:1002F00004F1080188423CBF5068586007D3516838
:10030000101941601168091B016058601460101DCC
:1003100070BD13465268002AE7D12146284600F0F6
:1003200043F80028DED170BD70B50446051F00F00B
:1003300033F80068002C14BF446870BD002C18BF4F
:10034000AC423CBF20466468F8D301680A18AA4250
:1003500018BF456003D12A6805461144016028682A
:100360004119A1421CBF6C6070BD61686960216861
:100370000844286070BD00000FB4044910B503AAFA
:10038000029800F05BF810BC5DF814FB2800002018
:10039000704770477047704700487047540F0020FF
:1003A000704770477047704738B504460A460020CA
:1003B0006946AFF30080002808BF38BD02460099A7
:1003C000204600F051F8012038BD012000F082B82D
:1003D000F8B5AFF30080054600200C46102000BFA2
:1003E0000646A819A0420DD9324669460020AFF34F
:1003F0000080070008BF00F06DF80098A04218BF09
:100400000546C419FFF7C8FF05600746F01D20F038
:1004100007004619284600F00AF8B44208BFF8BDA4
:10042000A21B31463868BDE8F84000F01DB8002135
:100430000160C0E90110704710207047074B70B58C
:100440000D467B4400F02FF80446284600F03EF8A5
:1004500010B14FF0FF3070BD204670BD8F1F0000FF
:10046000004870474C0F0020034640688C46002827
:1004700018BF88423CBF03464068F8D31868184448
:10048000884207D00CF1030020F00700001D411A3C
:10049000521A0146081D0A60FFF746BF01694A1C4F
:1004A00002610878704700B58FB0CDE901310021B5
:1004B000059105497944CDE903101146684600F0DD
:1004C00035F80FB000BD0000E5FFFFFF007B00F036
:1004D0008000704710B500F04BF8BDE8104000F008
:1004E00042B87546FFF7BCFFAE4605006946534665
:1004F00020F00700854618B020B5FFF779FEBDE86B
:1005000020404FF000064FF000074FF000084FF07A
:10051000000B21F00701AC46ACE8C009ACE8C0090B
:10052000ACE8C009ACE8C0098D4670472DE9F04140
:1005300006460024D6E90170F5688046304603E09F
:100540004146B847641C3046A8470028F8D12046E9
:10055000BDE8F08110B50446AFF300802046BDE849
:100560001040FFF730BE002801D001F09ABE70475E
:1005700010B5012805D0002103A000F021F80120CA
:1005800010BD09A1F8E7000053494752544D454DAD
:100590003A204F7574206F662068656170206D6524
:1005A0006D6F7279000000003A2048656170206D1F
:1005B000656D6F727920636F727275707465640017
:1005C00070B505460C460A2000E06D1C01F06CFE7B
:1005D00035B128780028F8D102E0641C01F064FEEF
:1005E00014B120780028F8D1BDE870400A2001F04D
:1005F0005BBE00BFFEE7000086B0002005900390C0
:1006000002900190824604E105AA01218148006818
:1006100000F0B4FC06469DF8140000283AD130786A
:10062000082836D2DFE800F035040B121920272EF7
:1006300001208DF80A0078A0FFF79EFE29E0012036
:100640008DF80D007AA0FFF797FE22E001208DF8CB
:1006500009007DA0FFF790FE1BE001208DF80C0043
:100660007FA0FFF789FE14E001208DF8060082A02C
:10067000FFF782FE0DE001208DF8050085A0FFF751
:100680007BFE06E001208DF8040089A0FFF774FED0
:1006900000BF00BF3046FFF747FE05AA01218B4887
:1006A000006800F06BFC07469DF8140008B9388814
:1006B00004909DF80C009DF80D1008439DF80E1055
:1006C00008439DF8081008439DF8091008439DF859
:1006D0000A1008439DF8041008439DF805100843CC
:1006E0009DF80610084300282DD09DF81000401EEC
:1006F00001A9085C9DF81010491E03AA515C08432B
:100700009DF81010491E02AA515C0843E0B1002177
:100710009DF81000401E01AA11549DF81000401EC3
:1007200003AA11549DF81000401E02AA1154012082
:10073000FFF7CBFD8046002088F800004146644862
:10074000006800F0A9FC61E000240025A1469DF8A6
:1007500004009DF8051008439DF80610084388B171
:100760009DF80500012801D1022434E09DF8040021
:10077000012801D101242EE09DF8060001282AD18C
:10078000032428E09DF80C009DF8081008439DF80C
:100790000D1008439DF8091008439DF80E100843FA
:1007A0009DF80A100843B0B19DF80D009DF809109E
:1007B000084308B102250EE09DF80C009DF80810D2
:1007C000084308B1012506E09DF80E009DF80A10C7
:1007D000084300B103251CB915B94FF0000906E024
:1007E00014B90DB1A94602E00CB105B9A146CA453C
:1007F0000AD00120FFF769FD804688F80090414645
:100800003348006800F048FCCA4600BF0A2001F0E7
:100810007DFDF9E60000002027444F574E27204F6A
:100820004E20463320505245535345442E0D0A0066
:1008300027555027204F4E204632205052455353C3
:1008400045442E0D0A00000027444F574E27204FE5
:100850004E20463220505245535345442E0D0A0037
:1008600027555027204F4E20463120505245535394
:1008700045442E0D0A0000002746332720494E200C
:10088000454C455641544F522050524553534544D0
:100890002E0D0A002746322720494E20454C45564A
:1008A00041544F5220505245535345442E0D0A0097
:1008B0002746312720494E20454C455641544F523A
:1008C00020505245535345442E0D0A000400002089
:1008D00008000020704700001CB54A4800680190DD
:1008E000002000900120484908608AE001A947489B
:1008F000006800F0D1FB6A4601214548006800F01D
:100900003DFB04469DF80000002874D1207830B1EA
:10091000012827D002283CD003286BD152E03DA00B
:10092000FFF72AFD01203849091D0860C82001F0A1
:10093000EDFC00203D49C1F8BC01C82001F0E6FCF7
:1009400001203149091D0860C82001F0DFFC0020AA
:100950003649C1F8BC01C82001F0D8FC34A0FFF72B
:100960000BFD47E038A0FFF707FD4FF4FA7001F0E8
:10097000CDFC01208DF804002349086000202B499C
:10098000C1F8B40120490839086036A0FFF7F4FC2B
:1009900030E03AA0FFF7F0FC4FF4FA7001F0B6FC3B
:1009A00002208DF8040000201749086001201F492B
:1009B000C1F8B401002014490839086036A0FFF7D7
:1009C000DBFC17E03AA0FFF7D7FC4FF4FA7001F018
:1009D0009DFC03208DF8040000200B49086013499A
:1009E000C1F8B401012008490839086037A0FFF7B1
:1009F000C3FC00BF00BF2046FFF796FC192001F0A2
:100A000085FC73E730250008B881214204000020EE
:100A100008000020454C455641544F52204F504548
:100A20004E20444F4F522E0D0A00000000802142FC
:100A3000454C455641544F5220434C4F534520445A
:100A40004F4F522E0D0A0000454C455641544F520F
:100A5000204D4F56494E4720544F2046312E0D0A07
:100A600000000000454C455641544F52204D4F5612
:100A7000454420544F2046312E0D0A00454C455622
:100A800041544F52204D4F56494E4720544F204617
:100A9000322E0D0A00000000454C455641544F527D
:100AA000204D4F56454420544F2046322E0D0A000B
:100AB000454C455641544F52204D4F56494E4720C4
:100AC000544F2046332E0D0A00000000454C455679
:100AD00041544F52204D4F56454420544F204633E9
:100AE0002E0D0A002DE9F0410246002500260020C7
:100AF00000230024002791F803C00CF00F0591F8A3
:100B000003C00CF0100CBCF1000F03D091F802C030
:100B10004CEA050591F800C0BCF1000F31D0146813
:100B200000202BE04FF0010C0CFA00F3B1F800C0EC
:100B30000CEA03069E4220D183004FF00F0C0CFA02
:100B400003F7BC4305FA03FC4CEA040491F803C024
:100B5000BCF1280F06D14FF0010C0CFA00FCC2F8D2
:100B600014C00AE091F803C0BCF1480F05D14FF062
:100B7000010C0CFA00FCC2F810C0401C0828D1D3AC
:100B80001460B1F800C0BCF1FF0F34DD54680020E0
:100B90002EE000F1080C4FF0010808FA0CF3B1F850
:100BA00000C00CEA03069E4221D183004FF00F0CD7
:100BB0000CFA03F7BC4305FA03FC4CEA040491F871
:100BC00003C0BCF1280F05D100F1080C08FA0CF89D
:100BD000C2F8148091F803C0BCF1480F07D100F1AE
:100BE000080C4FF0010808FA0CF8C2F81080401CFD
:100BF0000828CED35460BDE8F0814161704700BF42
:100C0000FEE70000002411E000F014F8044654B19F
:100C10000120FFF75AFB05462C702946044800685E
:100C200000F03AFA02E00A2001F070FBECE7000065
:100C30000000002010B53A48007800284AD0394812
:100C40000068B8B13748001D006898B135480830D1
:100C5000006878B133480C30006858B13148103022
:100C6000006838B12F481430006818B12D4818308A
:100C7000006870BB0A2001F049FB00202849087079
:100C80002848006808B9012010BD2648001D0068EA
:100C900008B90220F8E723480830006808B90320A3
:100CA000F2E720480C30006808B90420ECE71D4842
:100CB0001030006808B90520E6E71A4814300068CB
:100CC00008B90620E0E717481830006830BB072055
:100CD000DAE7FFE71348006801281FD11148001D1B
:100CE000006801281AD10F4808300068012815D182
:100CF0000C480C300068012810D10A4810300068F8
:100D000001280BD1074814300068012806D1054896
:100D100018300068012801D1014908700020B3E7AC
:100D2000200000200C81214208B501210C2001F097
:100D30005FF84FF47040ADF8000010208DF803000C
:100D400003208DF8020069460948FFF7CBFE4FF4F7
:100D500070410748FFF751FF4FF47E70ADF8000077
:100D600048208DF8030069460148FFF7BBFE08BD27
:100D7000000C014000BFFEE77047000070B5002185
:100D800000230F22C47804B3154C246804F4E064F3
:100D9000C4F5E064210AC1F10403CA40447804FAAE
:100DA00003F184781440214309010E4C0678A155C3
:100DB000047804F01F050124AC4005786D11AD00E6
:100DC00005F1E025C5F8004109E0047804F01F05AD
:100DD0000124AC40044D0678761145F8264070BDDC
:100DE0000CED00E000E400E080E100E00249014396
:100DF000024A1160704700000000FA050CED00E0A7
:100E000010B500F013F800F077FD00F09FFD00F042
:100E1000BFFD00F047FD00F019FD00F053FE00F0AB
:100E2000F7FD00F01DFE00F002F810BD704770479E
:100E300006480078012808D105480078FF2804D228
:100E400003480078401C0249087070476A0000207F
:100E50005D00002010B500241A480078012830D128
:100E6000FFF7D8F904461848007820B116480078F2
:100E7000401E1549087014480078F8B913480078E6
:100E8000E0B900F081FE12481249097850F82100BB
:100E9000114908600F4800781049097888420DD040
:100EA0000D480068806B401C0B49096888630C483A
:100EB0000068401C0A490860FFF7CBF92046FFF79D
:100EC000ADF910BD6A0000205D0000205E0000202A
:100ED000E409002060000020780000205F0000206E
:100EE000440000202DE9F04106460F464FF000086F
:100EF0001F48007810B10020BDE8F081FFF78AF9A3
:100F000080461C480568006820B11A48006840689F
:100F1000184908604046FFF781F93DB3FFF77AF9B9
:100F2000804615480468C4B100680068124908602A
:100F30004046FFF773F9666006EB8700A060E66045
:100F40002661A7820020E0820220287000202881EC
:100F50006C60284600F06CFC08E006480068686099
:100F6000044805604046FFF759F900252846C3E7C5
:100F70005D00002048000020840000202DE9F0479B
:100F80000746884615464FF000093878022804D0F5
:100F9000012028700020BDE8F0873C48007818B197
:100FA000022028700020F6E73948007818B10D209B
:100FB00028700020EFE7FFF72DF981467C68E08A72
:100FC00098B12169081D20610E68E08A401EE08208
:100FD000A1682069884201D1606820614846FFF716
:100FE0001DF9002028703046D5E72A48006890F89F
:100FF000300040F004002749096881F830000020E3
:101000002449096881F8310022480068C0F82C8022
:10101000384600F0CFFB4846FFF700F900F07AFDB4
:10102000FFF7F8F881461B48006890F8310020B1BE
:1010300001280DD002280AD105E016480068066A8A
:10104000002028700DE000260E20287009E000BF67
:1010500039461048006800F097FB00260A202870E7
:1010600000BF00BF00200B49096881F83000094922
:10107000096881F8310007490968C86105490968AC
:1010800008624846FFF7CAF8304684E75D00002052
:101090005E000020700000202DE9F04105460E465C
:1010A00000272878022802D00120BDE8F081FFF750
:1010B000B1F80746A87A60B10023042231462846D9
:1010C00000F020FB3846FFF7A9F800F023FD0020D0
:1010D000EBE76C68E08AA18A884204DB3846FFF7B8
:1010E0009DF81E20E1E7E168081DE0600E60E08ADF
:1010F000401CE082D4E90210884201D16068E060BF
:101100003846FFF78BF80020CFE7000010B5002429
:101110000B480078012811D1FFF77CF804460948F4
:10112000007840B908480078FF2804D206480078C3
:10113000401C054908702046FFF770F810BD0000FC
:101140006A0000205D0000205E00002010B5002431
:1011500013480078012821D1FFF75CF804461148B4
:101160000078C0B10F480078401E0E49087008464C
:10117000007860B90C48007828B92046FFF74EF88F
:1011800000F0C8FC0AE02046FFF748F806E02046D9
:10119000FFF744F802E02046FFF740F810BD0000DA
:1011A0006A0000205E0000205D00002010B50B48A2
:1011B000007890B900F0E8FC094800780949087007
:1011C00009480749097850F821000849086008468D
:1011D000006807490860FFF724F810BD6A00002086
:1011E000600000205F000020E4090020780000205B
:1011F00070000020704700002DE9FE4F06460F46A4
:1012000090461C464FF00009FFF704F881461F483E
:10121000007828B14846FFF701F83C20BDE8FE8F72
:101220001B4850F8240060BB0120194941F82400F4
:101230004846FEF7F3FF002342463946304600F0A9
:1012400009F982460020009001900346024651466B
:101250000290204600F0AEFC054635B90D480078F6
:1012600001280CD100F056FC09E0FEF7D3FF8146BF
:101270000020074941F824004846FEF7CFFF2846E2
:10128000CCE74846FEF7CAFF2820C7E75D000020EC
:10129000E40900206A0000202DE9F04F85B0814666
:1012A0008A4693461C46DDE90F78129D0020039084
:1012B000FEF7B0FF03902348007830B10398FEF7A3
:1012C000ADFF3C2005B0BDE8F08F1F4850F824006A
:1012D00088BB01201C4941F824000398FEF79EFFBB
:1012E0002A464146384600F075FD2B465A4651467F
:1012F000484600F0AFF804901198CDE900800295BF
:101300003A4620460E9B049900F054FC064636B936
:101310000E48007801280CD100F0FCFB09E0FEF734
:1013200079FF03900020084941F824000398FEF754
:1013300075FF3046C6E7FFE70398FEF76FFF2820EA
:10134000C0E700005D000020E40900206A000020E2
:10135000704770472DE9F04106460F4614464FF09E
:1013600000081548007818B112202070BDE8F081FF
:10137000FEF750FF8046FF2E03D11048006890F81A
:1013800032600F4850F826502DB94046FEF746FF10
:1013900043202070EAE7012D05D14046FEF73EFFCD
:1013A00043202070E2E7EF644046FEF737FF00205D
:1013B000207000BFDAE700005D0000207000002010
:1013C000E4090020704700002DE9F04707460D466C
:1013D0004FF0000A002028606860FEF71BFF82467D
:1013E000FF2F03D11948006890F83270184850F860
:1013F00027402CB95046FEF711FF4320BDE8F08787
:10140000012C04D15046FEF709FF4320F6E7207C6B
:1014100000F0010020B95046FEF700FF4520EDE73F
:101420000026D4F80C90D4F808805046FEF7F6FE5B
:1014300000E0761C58F8041B0029FAD0B0002860A0
:10144000A9EB0600800068600020D7E7700000204C
:10145000E409002070B5044610464FF08075056021
:10146000051F28462C606FF00106051F28462E60D8
:101470004FF01236051F28462E604FF00336051F29
:1014800028462E604FF00236051F28462E60761043
:10149000051F28462E60051F284629604FF011368B
:1014A000051F28462E604FF01036051F28462E6077
:1014B0004FF00936051F28462E604FF00836051FED
:1014C00028462E604FF00736051F28462E604FF045
:1014D0000636051F28462E604FF00536051F2846A4
:1014E0002E604FF00436051F28462E6070BD0000A8
:1014F0002DE9F04105464FF00008FEF78BFE8046CF
:10150000FF2D05D12048006890F83250012608E0F0
:101510001D48006890F83200A84201D1012600E081
:1015200000261A4850F825402CB94046FEF776FEB2
:101530004820BDE8F081012C04D14046FEF76EFE44
:101540004320F6E794F834701148C05D94F83510E4
:1015500088430F49C8550846C05D30B994F8361025
:101560000C48007888430B49087094F8300040F02C
:10157000080084F830004046FEF750FE012E01D1ED
:1015800000F0C8FA0020D4E770000020E409002031
:1015900062000020610000207047000070B5054621
:1015A00000261748007800B170BD1648007800B1D9
:1015B000FAE71DB3FEF72EFE06461348006890F8C2
:1015C00034401248005D1049096891F8351088438D
:1015D0000E4908550846005D40B90B48006890F870
:1015E00036100B480078884309490870064800689F
:1015F000C5623046FEF712FE00F08CFA00BFD3E75A
:101600005D0000205E0000207000002062000020CD
:101610006100002070B5002600F072F8FEF7FAFDB8
:10162000064631480068401C2F4908603046FEF7E6
:10163000F5FD2E480078012853D12D48007820B1BF
:10164000012804D0022809D103E001250BE0002580
:1016500009E0012501202649087004E00125002049
:101660002349087000BF00BF05B970BD2148046858
:1016700033E0FEF7CFFD0646E06A50B3E06A401E55
:10168000E062E06A28BB94F8300000F0370040B117
:1016900014F8300F00F0C800207001206070303C5A
:1016A00002E0002084F8310094F8300000F00800D7
:1016B00078B93434A0781049097808430E49087085
:1016C00020780E49085C6178084314F834190B4AF5
:1016D000505464693046FEF7A1FD94F832003F286B
:1016E000C7D100BFC1E70000880000206A000020C9
:1016F000800000207C0000206100002062000020AB
:10170000704700002DE9F04F05460F469046994678
:10171000A87A19490E5C05F10B00805D11F800B044
:101720000BEBC60000F0FF0A144850F82A400020D6
:101730002034E0602760207C20EA0800207484F8D0
:101740001190207C203C00F0080068B994F8360025
:101750000B49097808430A4908700A48805D94F8E3
:1017600035100843074988552946204600F00CF8F3
:101770005046BDE8F08F000032250008E409002043
:10178000610000206200002010B590F8342001F1C3
:101790000B039B5C90F83540A34301F10B04A35469
:1017A00023469B5C23B98B7A90F83640A3438B7217
:1017B00010BD000010B51B4A1268D061194A1268AA
:1017C00092F8343000F10B02D25C164B1B6893F890
:1017D00035301A43134B1B6893F8344000F10B0368
:1017E0001A55827A0F4B1B6893F836301A4382726F
:1017F0000C4A126892F834100B4A525C094B1B6871
:1018000093F835309A43084B5A541A46525C42B901
:10181000044A126892F83630044A12789A43034B0D
:101820001A7010BD700000206200002061000020CE
:10183000014600228A72002005E0002301F10B021C
:101840001354421CD0B20828F7D370472DE9F04159
:101850005021114800F02CF900250DE0681C86B2DB
:101860000D4800EB051400EB0617002020706760A0
:101870000AA0E060681C85B2042DEFD3064800EB97
:10188000051400202070606004A0E0600248044954
:101890000860BDE8F0810000940500203F000000D2
:1018A0004C00002070B5C821114800F001F9002358
:1018B0000FE0581C85B203EB83000D4901EB800457
:1018C00005EB850001EB8006002020706660581C47
:1018D00083B2092BEDD303EB8300054901EB8004B0
:1018E00000202070606008460249086070BD00005A
:1018F000CC0400204800002000200A4908600A4962
:1019000008700A4908700A4908700A4908700A49AB
:1019100008600A4908600A4908600A4908600A49DB
:1019200008707047880000205D0000205E000020E5
:101930006B0000206A000020440000206C000020A2
:1019400058000020540000205C00002000210A4ABA
:101950001170002004E00021084A1154411CC8B253
:101960000828F8D30021064A1170064A1170064A69
:101970001160064A1160704761000020620000207B
:101980005F00002060000020780000207000002030
:1019900070B54FF47C71194800F08AF84FF48071EB
:1019A000174800F085F8002413E0601CC5B2C4EBB2
:1019B000C40000EB4000114901EB8003C5EBC500FA
:1019C00000EB400001EB80065E610EA0D864601C55
:1019D000C4B20B2CE9D3C4EBC40000EB40000749B0
:1019E00001EB80030020586106A0D864002006495E
:1019F000086002480549086070BD0000E40A002044
:101A0000E40900203F0000007C000020740000205A
:101A100000B587B00320002180220A4BCDE90132B6
:101A2000CDE903104FF6FF703F23074A00900748A7
:101A3000FFF732FC06AA06A13F20FFF78BFC07B098
:101A400000BD0000E4070020E0090020E91C0008B8
:101A500075432F4F532D49492049646C65000000A0
:101A600000B587B00320002180220A4BCDE9013266
:101A7000CDE903104FF6FE703E23074A0090074859
:101A8000FFF70AFC06AA06A13E20FFF763FC07B099
:101A900000BD0000E4050020E0070020111D000843
:101AA00075432F4F532D4949205374617400000032
:101AB00004E0002200F8012B4A1E91B20029F8D15F
:101AC000704700002DE9F04178211048FFF7F0FF42
:101AD00000240DE0601C86B204EB44000B4901EBCE
:101AE000C00506EB460001EBC0072F60601C84B206
:101AF000042CEFD304EB4400044901EBC0050020A3
:101B00002860084602490860BDE8F081D40E002034
:101B10008400002010B50024FEF77CFB0446134827
:101B20000078F8B912480078E0B900F02DF81148B3
:101B30001149097850F82100104908600E480078D2
:101B40000F49097888420DD00C480068806B401C12
:101B50000A49096888630B480068401C0949086005
:101B6000FEF770FB2046FEF759FB10BD5D0000201C
:101B70005E000020E40900206000002078000020C2
:101B80005F000020440000200649074A1278885C64
:101B90000649095C034A515C01EBC001044A11701B
:101BA000704700003225000861000020620000201C
:101BB000600000202DE9F84F05460F4690469946F3
:101BC000DDE90AAB00200090FEF724FB00903F48BF
:101BD0000468002C74D0183454F8040C3B49086095
:101BE0000098FEF71BFB44F8187CA57600202076B1
:101BF0006076606144F814BC44F80CAC44F8108C76
:101C00000C9824F8080C24F8069C0020E077E810D3
:101C1000207705F00700E076217F01208840A0773B
:101C2000E17E01208840607700206060E060A06075
:101C30002062A0626062E062206325A06063183CBD
:101C4000002606E0002104F1500040F82610701C28
:101C5000C6B2002EF6D02046FFF7CCFA2046FFF79A
:101C600077FBFEF7D7FA00901A4840F825401A484B
:101C7000006860610020A0611748006810B1164834
:101C800000688461144804603434A07813490978EA
:101C900008431249087020781149085C61780843AC
:101CA00014F834190E4A50540E480078401C0D495F
:101CB00008700098FEF7B2FA0020BDE8F88FFFE741
:101CC0000098FEF7ABFA4220F7E70000740000200E
:101CD0003F000000E40900207C000020610000209B
:101CE000620000206B000020002400BF00BFFEF750
:101CF00091FA044605480068401C044908602046E3
:101D0000FEF78CFAFFF725FBF1E700006C000020DE
:101D1000002400BF02E02820FFF740FC19480078AB
:101D20000028F8D0184800686421B0FBF1F016498B
:101D300008600846006828B9002014490870FF2090
:101D4000FFF7D6FB00BFFEF765FA044610480068AF
:101D50001049086000200E4908602046FEF75EFA30
:101D60000C48006808490968B0FBF1F0C0F1640054
:101D700006490870FFF726FB00F00EF81420FFF765
:101D80000DFCE0E75C000020540000205000002023
:101D90006C000020580000207CB5002514E0694646
:101DA0002846FFF711FB064666B9094850F825405A
:101DB00044B1012C06D0D4E9020100EB810060643B
:101DC0000198A064681CC5B23F2DE8D97CBD000015
:101DD000E409002002F0010343B102F002032BB139
:101DE00002E0491E002308C00029FAD17047000014
:101DF00029B1064A92690243044B9A6104E0034AFE
:101E000092698243014B9A617047000000100240C2
:101E100030B500210022002400232D4D6D6805F00F
:101E20000C0121B1042905D0082923D105E0294D51
:101E3000056022E0274D05601FE0254D6D6805F423
:101E40007012234D6D6805F48034022505EB924233
:101E50001CB9214D554305600BE01D4D6D6805F41F
:101E600000351DB11C4D5543056002E0194D554329
:101E7000056002E0174D056000BF00BF144D6D689E
:101E800005F0F0010909154D6B5C0568DD40456002
:101E90000F4D6D6805F4E061090A104D6B5C4568F3
:101EA000DD4085600A4D6D6805F46051C90A0B4D2F
:101EB0006B5C4568DD40C560054D6D6805F44041CB
:101EC000890B074D6B5CC568B5FBF3F5056130BD4B
:101ED0000010024000127A0000093D002E00002090
:101EE0003E000020704710B500F002F810BD000061
:101EF0000CB50020019000903348006840F4803019
:101F00003149086000BF3048006800F4003000909C
:101F10000198401C0190009818B90198B0F5A06F85
:101F2000F1D12948006800F4003010B10120009080
:101F300001E0002000900098012843D12348006868
:101F400040F01000214908600846006820F00300B6
:101F500008600846006840F0020008601A484068BF
:101F6000194948600846406848600846406840F49F
:101F7000806048600846406820F47C10486008464D
:101F8000406840F4E81048600846006840F08070FF
:101F9000086000BF0C48006800F000700028F9D00D
:101FA0000948406820F00300074948600846406837
:101FB00040F00200486000BF0348406800F00C0099
:101FC0000828F9D10CBD000000100240002002409A
:101FD000042808D14FF0E021096941F004014FF0D5
:101FE000E022116107E04FF0E021096921F00401CE
:101FF0004FF0E0221161704710B5054800780128C4
:1020000005D1FEF715FFFFF705FBFEF723FF10BD17
:102010006A00002010B51348006840F00100114923
:10202000086008464068104908400E494860084664
:1020300000680E4908400B4908600846006820F413
:10204000802008600846406820F4FE0048604FF495
:102050001F008860FFF747FF4FF0006004490860E9
:1020600010BD0000001002400000FFF8FFFFF6FE68
:1020700008ED00E010B5FEF7DBFE40F225511E48EA
:1020800000F04CF810B31C4800F004F9C4B21B482F
:10209000008800F40040C8B91848008800F4804067
:1020A00060B10A2C03D000201449088020E01348B6
:1020B000008840F400401149088019E00D2C06D139
:1020C0000E48008840F480400C49088010E00B481E
:1020D0000088C0F30D000A490C5408480088401CD1
:1020E0000649088008460088C72801DD00200880CE
:1020F000FEF7B0FE10BD0000003801402C000020AB
:102100000404002021B1828942F40052828104E05B
:1021100082894DF6FF731A408281704770B502467E
:10212000002400230025002040F66A16B14200D1A9
:1021300000BFC1F3421501F01F03012606FA03F3A5
:10214000012D02D19689334006E0022D02D1168A74
:10215000334001E0968A33400C12012606FA04F45B
:102160001688344013B10CB1012000E0002070BD8E
:10217000F0B50346002400260025002040F66A172B
:10218000B94200D100BF1846C1F3421401F01F0646
:10219000012707FA06F5012C01D10C3004E0022CCE
:1021A00001D1103000E014301AB107682F430760E6
:1021B00002E00768AF430760F0BD00002DE9F0477B
:1021C00086B005460E460024A24600BFA146002761
:1021D000B08900B100BF2F462C8A4CF6FF70044036
:1021E000F08804432C82AC894EF6F3100440B0888A
:1021F00031890843718908430443AC81AC8A4FF6A6
:10220000FF400440B0890443AC8201A8FFF700FE00
:102210001F48874202D1DDF810A001E0DDF80CA0D4
:10222000A88900F4004040B10AEBCA0000EB0A1094
:1022300031684900B0FBF1F807E00AEBCA0000EB97
:102240000A1031688900B0FBF1F86420B8FBF0F0A7
:1022500004012009642101FB1089A88900F40040D1
:1022600040B1322000EBC900B0FBF1F000F00700F4
:10227000044308E0322000EB09106421B0FBF1F0C8
:1022800000F00F0004432C8106B0BDE8F087000089
:102290000038014001468888C0F30800704700BF3D
:1022A000FEE7014600BF7047014600BF70470000CF
:1022B00010B56FF00400FFF78BFE1048006810495E
:1022C000B0FBF1F00F4908700C4800680C49B0FBF6
:1022D000F1F441F28830444305200B4908804FF067
:1022E000E020006940F002004FF0E021086108465C
:1022F0004461006940F00100086110BD0C0000203D
:1023000000127A00220000202400002070B504464C
:102310000F480078A0B10F48007888B90E480088AF
:10232000844206DB0C48008894FBF0F5284600F058
:102330001DF80948008894FBF0F100FB114084B2BD
:102340004FF47A7104FB01F000F016F870BD000044
:102350006A0000205D0000202400002010B5FEF778
:10236000D5FE10BD10B5FEF7F1FE10BD10B5044648
:102370002046FFF713F910BD2DE9F0470746002668
:102380004FF0E020D0F814901148007807FB00F8D7
:1023900000BFFFF7E3FF4FF0E020856911E04FF049
:1023A000E0208469AC420CD0AC4202D2281B064427
:1023B00003E0A9EB0400284406442546464500D323
:1023C00000E0ECE700BFFFF7CDFFBDE8F0870000BD
:1023D0002200002000BF054A128802F04002002AB5
:1023E000F9D0C2B2014B1B1D1A8070470038014062
:1023F00010B54FF4A060FEF7F9FCFFF759FFFEF7A8
:1024000093FC4FF4E13000F043F8FEF7F9FC0A21A9
:102410001348FEF767FD134908600A211248FEF7CA
:1024200061FD124908600A211148FEF75BFD114960
:1024300008600323104A00211048FEF7DDFE042344
:102440000F4A00210F48FEF7D7FE05230E4A002150
:102450000E48FEF7D1FEFEF7A9FE002010BD0000D9
:102460008C00002000000020B400002004000020A8
:10247000DC0000200800002000020020050C0008FD
:1024800000030020F905000800040020D908000816
:1024900010B586B00446012144F20400FFF7A8FC01
:1024A0004FF40070ADF8140003208DF816001820CA
:1024B0008DF8170005A91C48FEF714FB4FF4806047
:1024C000ADF8140004208DF8170005A91648FEF792
:1024D00009FB25208DF8000003208DF801008DF800
:1024E000020001208DF803006846FEF747FC0194C6
:1024F0000020ADF80800ADF80A00ADF80C00ADF80A
:1025000010000C20ADF80E0001A90848FFF756FE98
:10251000012240F225510548FFF72AFE0121034818
:10252000FFF7F0FD06B010BD000801400038014083
:10253000010100000100020001000300010002008F
:10254000010004000100020001000300010002007C
:10255000010005000100020001000300010002006B
:10256000010004000100020001000300010002005C
:10257000010006000100020001000300010002004A
:10258000010004000100020001000300010002003C
:10259000010005000100020001000300010002002B
:1025A000010004000100020001000300010002001C
:1025B0000100070001000200010003000100020009
:1025C00001000400010002000100030001000200FC
:1025D00001000500010002000100030001000200EB
:1025E00001000400010002000100030001000200DC
:1025F00001000600010002000100030001000200CA
:1026000001000400010002000100030001000200BB
:1026100001000500010002000100030001000200AA
:10262000010004000100020001000300010002009B
:102630000100000054260008000000208C0000006B
:102640006C010008E02600088C0000202415000022
:1026500088010008000000000000000000000000E9
:1026600000A24A0400000000000000000102030470
:10267000060708090100000000000000000000003B
:102680000000000000000102030401020304060729
:102690000809020406080000000000000000000015
:1026A000000000000000000000000000000000002A
:1026B000000000000000000000000000000000001A
:1026C000000000000000000000000000000000000A
:1026D00000000000000000000000000000000000FA
:04000005080001D519
:00000001FF
